{
  "_format": "hh-sol-artifact-1",
  "contractName": "Pool",
  "sourceName": "contracts/Pool.sol",
  "abi": [
    {
      "inputs": [],
      "name": "INVALID_AMOUNT",
      "type": "error"
    },
    {
      "inputs": [],
      "name": "NOT_ENOUGH_IN_USER_BALANCE",
      "type": "error"
    },
    {
      "inputs": [],
      "name": "RESERVE_ALREADY_ADDED",
      "type": "error"
    },
    {
      "anonymous": false,
      "inputs": [
        {
          "indexed": false,
          "internalType": "uint8",
          "name": "version",
          "type": "uint8"
        }
      ],
      "name": "Initialized",
      "type": "event"
    },
    {
      "anonymous": false,
      "inputs": [
        {
          "indexed": true,
          "internalType": "address",
          "name": "previousOwner",
          "type": "address"
        },
        {
          "indexed": true,
          "internalType": "address",
          "name": "newOwner",
          "type": "address"
        }
      ],
      "name": "OwnershipTransferred",
      "type": "event"
    },
    {
      "inputs": [
        {
          "internalType": "address",
          "name": "underlyingAsset",
          "type": "address"
        },
        {
          "internalType": "uint256",
          "name": "amount",
          "type": "uint256"
        }
      ],
      "name": "deposit",
      "outputs": [],
      "stateMutability": "nonpayable",
      "type": "function"
    },
    {
      "inputs": [
        {
          "internalType": "address",
          "name": "asset",
          "type": "address"
        }
      ],
      "name": "getReserve",
      "outputs": [
        {
          "components": [
            {
              "internalType": "uint16",
              "name": "id",
              "type": "uint16"
            },
            {
              "internalType": "address",
              "name": "thTokenAddress",
              "type": "address"
            }
          ],
          "internalType": "struct DataTypes.Reserve",
          "name": "",
          "type": "tuple"
        }
      ],
      "stateMutability": "view",
      "type": "function"
    },
    {
      "inputs": [
        {
          "internalType": "address",
          "name": "underlyingAsset",
          "type": "address"
        },
        {
          "internalType": "address",
          "name": "thTokenAddress",
          "type": "address"
        }
      ],
      "name": "initReserve",
      "outputs": [
        {
          "internalType": "bool",
          "name": "",
          "type": "bool"
        }
      ],
      "stateMutability": "nonpayable",
      "type": "function"
    },
    {
      "inputs": [],
      "name": "initialize",
      "outputs": [],
      "stateMutability": "nonpayable",
      "type": "function"
    },
    {
      "inputs": [],
      "name": "owner",
      "outputs": [
        {
          "internalType": "address",
          "name": "",
          "type": "address"
        }
      ],
      "stateMutability": "view",
      "type": "function"
    },
    {
      "inputs": [],
      "name": "renounceOwnership",
      "outputs": [],
      "stateMutability": "nonpayable",
      "type": "function"
    },
    {
      "inputs": [
        {
          "internalType": "address",
          "name": "newOwner",
          "type": "address"
        }
      ],
      "name": "transferOwnership",
      "outputs": [],
      "stateMutability": "nonpayable",
      "type": "function"
    },
    {
      "inputs": [
        {
          "internalType": "address",
          "name": "underlyingAsset",
          "type": "address"
        },
        {
          "internalType": "uint256",
          "name": "amount",
          "type": "uint256"
        }
      ],
      "name": "withdraw",
      "outputs": [],
      "stateMutability": "nonpayable",
      "type": "function"
    }
  ],
  "bytecode": "0x608060405234801561001057600080fd5b506114d7806100206000396000f3fe608060405234801561001057600080fd5b50600436106100885760003560e01c80638da5cb5b1161005b5780638da5cb5b146100ed578063c9a396e91461010b578063f2fde38b1461013b578063f3fef3a31461015757610088565b806347e7ef241461008d5780636c3fbb80146100a9578063715018a6146100d95780638129fc1c146100e3575b600080fd5b6100a760048036038101906100a29190610f11565b610173565b005b6100c360048036038101906100be9190610f51565b610183565b6040516100d09190610fac565b60405180910390f35b6100e16101a9565b005b6100eb6101bd565b005b6100f5610305565b6040516101029190610fd6565b60405180910390f35b61012560048036038101906101209190610ff1565b61032f565b6040516101329190611079565b60405180910390f35b61015560048036038101906101509190610ff1565b6103fe565b005b610171600480360381019061016c9190610f11565b610482565b005b61017f60658383610492565b5050565b600061018d6106eb565b600061019d606560668686610769565b90508091505092915050565b6101b16106eb565b6101bb60006109c2565b565b60008060019054906101000a900460ff161590508080156101ee5750600160008054906101000a900460ff1660ff16105b8061021b57506101fd30610a88565b15801561021a5750600160008054906101000a900460ff1660ff16145b5b61025a576040517f08c379a000000000000000000000000000000000000000000000000000000000815260040161025190611117565b60405180910390fd5b60016000806101000a81548160ff021916908360ff1602179055508015610297576001600060016101000a81548160ff0219169083151502179055505b62278d006067819055506102a9610aab565b80156103025760008060016101000a81548160ff0219169083151502179055507f7f26b83ff96e1f2b6a682f133852f6798a09c465da95921460cefb384740249860016040516102f99190611189565b60405180910390a15b50565b6000603360009054906101000a900473ffffffffffffffffffffffffffffffffffffffff16905090565b610337610e44565b606560008373ffffffffffffffffffffffffffffffffffffffff1673ffffffffffffffffffffffffffffffffffffffff1681526020019081526020016000206040518060400160405290816000820160009054906101000a900461ffff1661ffff1661ffff1681526020016000820160029054906101000a900473ffffffffffffffffffffffffffffffffffffffff1673ffffffffffffffffffffffffffffffffffffffff1673ffffffffffffffffffffffffffffffffffffffff16815250509050919050565b6104066106eb565b600073ffffffffffffffffffffffffffffffffffffffff168173ffffffffffffffffffffffffffffffffffffffff161415610476576040517f08c379a000000000000000000000000000000000000000000000000000000000815260040161046d90611216565b60405180910390fd5b61047f816109c2565b50565b61048e60658383610b04565b5050565b60008360008473ffffffffffffffffffffffffffffffffffffffff1673ffffffffffffffffffffffffffffffffffffffff1681526020019081526020016000206040518060400160405290816000820160009054906101000a900461ffff1661ffff1661ffff1681526020016000820160029054906101000a900473ffffffffffffffffffffffffffffffffffffffff1673ffffffffffffffffffffffffffffffffffffffff1673ffffffffffffffffffffffffffffffffffffffff168152505090506000821415610590576040517ffae8279100000000000000000000000000000000000000000000000000000000815260040160405180910390fd5b8273ffffffffffffffffffffffffffffffffffffffff166323b872dd338360200151856040518463ffffffff1660e01b81526004016105d193929190611245565b602060405180830381600087803b1580156105eb57600080fd5b505af11580156105ff573d6000803e3d6000fd5b505050506040513d601f19601f8201168201806040525081019061062391906112a8565b50806020015173ffffffffffffffffffffffffffffffffffffffff166340c10f1933846040518363ffffffff1660e01b81526004016106639291906112d5565b600060405180830381600087803b15801561067d57600080fd5b505af1158015610691573d6000803e3d6000fd5b505050508273ffffffffffffffffffffffffffffffffffffffff167f5548c837ab068cf56a2c2479df0882a4922fd203edb7517321831d95078c5f6233846040516106dd9291906112d5565b60405180910390a250505050565b6106f3610d94565b73ffffffffffffffffffffffffffffffffffffffff16610711610305565b73ffffffffffffffffffffffffffffffffffffffff1614610767576040517f08c379a000000000000000000000000000000000000000000000000000000000815260040161075e9061134a565b60405180910390fd5b565b60008060008660008673ffffffffffffffffffffffffffffffffffffffff1673ffffffffffffffffffffffffffffffffffffffff16815260200190815260200160002060000160009054906101000a900461ffff1661ffff1614158061085d5750600073ffffffffffffffffffffffffffffffffffffffff168660008673ffffffffffffffffffffffffffffffffffffffff1673ffffffffffffffffffffffffffffffffffffffff16815260200190815260200160002060000160029054906101000a900473ffffffffffffffffffffffffffffffffffffffff1673ffffffffffffffffffffffffffffffffffffffff1614155b90508015610897576040517f12dcade800000000000000000000000000000000000000000000000000000000815260040160405180910390fd5b6108e7838760008773ffffffffffffffffffffffffffffffffffffffff1673ffffffffffffffffffffffffffffffffffffffff168152602001908152602001600020610d9c90919063ffffffff16565b84849080600181540180825580915050600190039060005260206000200160009091909190916101000a81548173ffffffffffffffffffffffffffffffffffffffff021916908373ffffffffffffffffffffffffffffffffffffffff1602179055506001858054905061095a9190611399565b8660008673ffffffffffffffffffffffffffffffffffffffff1673ffffffffffffffffffffffffffffffffffffffff16815260200190815260200160002060000160006101000a81548161ffff021916908361ffff1602179055506001915050949350505050565b6000603360009054906101000a900473ffffffffffffffffffffffffffffffffffffffff16905081603360006101000a81548173ffffffffffffffffffffffffffffffffffffffff021916908373ffffffffffffffffffffffffffffffffffffffff1602179055508173ffffffffffffffffffffffffffffffffffffffff168173ffffffffffffffffffffffffffffffffffffffff167f8be0079c531659141344cd1fd0a4f28419497f9722a3daafe3b4186f6b6457e060405160405180910390a35050565b6000808273ffffffffffffffffffffffffffffffffffffffff163b119050919050565b600060019054906101000a900460ff16610afa576040517f08c379a0000000000000000000000000000000000000000000000000000000008152600401610af19061143f565b60405180910390fd5b610b02610de3565b565b60008360008473ffffffffffffffffffffffffffffffffffffffff1673ffffffffffffffffffffffffffffffffffffffff1681526020019081526020016000206040518060400160405290816000820160009054906101000a900461ffff1661ffff1661ffff1681526020016000820160029054906101000a900473ffffffffffffffffffffffffffffffffffffffff1673ffffffffffffffffffffffffffffffffffffffff1673ffffffffffffffffffffffffffffffffffffffff168152505090506000821415610c02576040517ffae8279100000000000000000000000000000000000000000000000000000000815260040160405180910390fd5b6000816020015173ffffffffffffffffffffffffffffffffffffffff166370a08231336040518263ffffffff1660e01b8152600401610c419190610fd6565b60206040518083038186803b158015610c5957600080fd5b505afa158015610c6d573d6000803e3d6000fd5b505050506040513d601f19601f82011682018060405250810190610c919190611474565b9050808310610ccc576040517fb7e0b24e00000000000000000000000000000000000000000000000000000000815260040160405180910390fd5b816020015173ffffffffffffffffffffffffffffffffffffffff16639dc29fac33856040518363ffffffff1660e01b8152600401610d0b9291906112d5565b600060405180830381600087803b158015610d2557600080fd5b505af1158015610d39573d6000803e3d6000fd5b505050508373ffffffffffffffffffffffffffffffffffffffff167f9b1bfa7fa9ee420a16e124f794c35ac9f90472acc99140eb2f6447c714cad8eb3385604051610d859291906112d5565b60405180910390a25050505050565b600033905090565b808260000160026101000a81548173ffffffffffffffffffffffffffffffffffffffff021916908373ffffffffffffffffffffffffffffffffffffffff1602179055505050565b600060019054906101000a900460ff16610e32576040517f08c379a0000000000000000000000000000000000000000000000000000000008152600401610e299061143f565b60405180910390fd5b610e42610e3d610d94565b6109c2565b565b6040518060400160405280600061ffff168152602001600073ffffffffffffffffffffffffffffffffffffffff1681525090565b600080fd5b600073ffffffffffffffffffffffffffffffffffffffff82169050919050565b6000610ea882610e7d565b9050919050565b610eb881610e9d565b8114610ec357600080fd5b50565b600081359050610ed581610eaf565b92915050565b6000819050919050565b610eee81610edb565b8114610ef957600080fd5b50565b600081359050610f0b81610ee5565b92915050565b60008060408385031215610f2857610f27610e78565b5b6000610f3685828601610ec6565b9250506020610f4785828601610efc565b9150509250929050565b60008060408385031215610f6857610f67610e78565b5b6000610f7685828601610ec6565b9250506020610f8785828601610ec6565b9150509250929050565b60008115159050919050565b610fa681610f91565b82525050565b6000602082019050610fc16000830184610f9d565b92915050565b610fd081610e9d565b82525050565b6000602082019050610feb6000830184610fc7565b92915050565b60006020828403121561100757611006610e78565b5b600061101584828501610ec6565b91505092915050565b600061ffff82169050919050565b6110358161101e565b82525050565b61104481610e9d565b82525050565b604082016000820151611060600085018261102c565b506020820151611073602085018261103b565b50505050565b600060408201905061108e600083018461104a565b92915050565b600082825260208201905092915050565b7f496e697469616c697a61626c653a20636f6e747261637420697320616c72656160008201527f647920696e697469616c697a6564000000000000000000000000000000000000602082015250565b6000611101602e83611094565b915061110c826110a5565b604082019050919050565b60006020820190508181036000830152611130816110f4565b9050919050565b6000819050919050565b600060ff82169050919050565b6000819050919050565b600061117361116e61116984611137565b61114e565b611141565b9050919050565b61118381611158565b82525050565b600060208201905061119e600083018461117a565b92915050565b7f4f776e61626c653a206e6577206f776e657220697320746865207a65726f206160008201527f6464726573730000000000000000000000000000000000000000000000000000602082015250565b6000611200602683611094565b915061120b826111a4565b604082019050919050565b6000602082019050818103600083015261122f816111f3565b9050919050565b61123f81610edb565b82525050565b600060608201905061125a6000830186610fc7565b6112676020830185610fc7565b6112746040830184611236565b949350505050565b61128581610f91565b811461129057600080fd5b50565b6000815190506112a28161127c565b92915050565b6000602082840312156112be576112bd610e78565b5b60006112cc84828501611293565b91505092915050565b60006040820190506112ea6000830185610fc7565b6112f76020830184611236565b9392505050565b7f4f776e61626c653a2063616c6c6572206973206e6f7420746865206f776e6572600082015250565b6000611334602083611094565b915061133f826112fe565b602082019050919050565b6000602082019050818103600083015261136381611327565b9050919050565b7f4e487b7100000000000000000000000000000000000000000000000000000000600052601160045260246000fd5b60006113a482610edb565b91506113af83610edb565b9250828210156113c2576113c161136a565b5b828203905092915050565b7f496e697469616c697a61626c653a20636f6e7472616374206973206e6f74206960008201527f6e697469616c697a696e67000000000000000000000000000000000000000000602082015250565b6000611429602b83611094565b9150611434826113cd565b604082019050919050565b600060208201905081810360008301526114588161141c565b9050919050565b60008151905061146e81610ee5565b92915050565b60006020828403121561148a57611489610e78565b5b60006114988482850161145f565b9150509291505056fea264697066735822122073a6c70c522e2656e0ec2d731f54d53b9c1d04d6b072ea1913e09a9b6e3af51264736f6c63430008080033",
  "linkReferences": {},
  "deployedLinkReferences": {}
}