{
  "_format": "hh-sol-artifact-1",
  "contractName": "Pool",
  "sourceName": "contracts/Pool.sol",
  "abi": [
    {
      "inputs": [],
      "name": "INVALID_AMOUNT",
      "type": "error"
    },
    {
      "inputs": [],
      "name": "NOT_ENOUGH_IN_USER_BALANCE",
      "type": "error"
    },
    {
      "inputs": [],
      "name": "RESERVE_ALREADY_ADDED",
      "type": "error"
    },
    {
      "inputs": [],
      "name": "RESERVE_ALREADY_INITIALIZED",
      "type": "error"
    },
    {
      "anonymous": false,
      "inputs": [
        {
          "indexed": true,
          "internalType": "address",
          "name": "reserve",
          "type": "address"
        },
        {
          "indexed": false,
          "internalType": "address",
          "name": "user",
          "type": "address"
        },
        {
          "indexed": false,
          "internalType": "uint256",
          "name": "amount",
          "type": "uint256"
        }
      ],
      "name": "Deposit",
      "type": "event"
    },
    {
      "anonymous": false,
      "inputs": [
        {
          "indexed": true,
          "internalType": "address",
          "name": "reserve",
          "type": "address"
        },
        {
          "indexed": false,
          "internalType": "address",
          "name": "user",
          "type": "address"
        },
        {
          "indexed": false,
          "internalType": "uint256",
          "name": "amount",
          "type": "uint256"
        }
      ],
      "name": "Withdraw",
      "type": "event"
    },
    {
      "inputs": [
        {
          "internalType": "address",
          "name": "underlyingAsset",
          "type": "address"
        }
      ],
      "name": "deposit",
      "outputs": [],
      "stateMutability": "payable",
      "type": "function"
    },
    {
      "inputs": [
        {
          "internalType": "address",
          "name": "asset",
          "type": "address"
        }
      ],
      "name": "getReserve",
      "outputs": [
        {
          "components": [
            {
              "internalType": "uint16",
              "name": "id",
              "type": "uint16"
            },
            {
              "internalType": "address",
              "name": "thTokenAddress",
              "type": "address"
            }
          ],
          "internalType": "struct DataTypes.Reserve",
          "name": "",
          "type": "tuple"
        }
      ],
      "stateMutability": "view",
      "type": "function"
    },
    {
      "inputs": [
        {
          "internalType": "address",
          "name": "underlyingAsset",
          "type": "address"
        },
        {
          "internalType": "address",
          "name": "thTokenAddress",
          "type": "address"
        }
      ],
      "name": "initReserve",
      "outputs": [
        {
          "internalType": "bool",
          "name": "",
          "type": "bool"
        }
      ],
      "stateMutability": "nonpayable",
      "type": "function"
    },
    {
      "inputs": [
        {
          "internalType": "address",
          "name": "underlyingAsset",
          "type": "address"
        },
        {
          "internalType": "uint256",
          "name": "amount",
          "type": "uint256"
        }
      ],
      "name": "withdraw",
      "outputs": [],
      "stateMutability": "nonpayable",
      "type": "function"
    }
  ],
  "bytecode": "0x608060405234801561001057600080fd5b50610d7d806100206000396000f3fe60806040526004361061003f5760003560e01c80636c3fbb8014610044578063c9a396e914610081578063f340fa01146100be578063f3fef3a3146100da575b600080fd5b34801561005057600080fd5b5061006b60048036038101906100669190610a21565b610103565b6040516100789190610a7c565b60405180910390f35b34801561008d57600080fd5b506100a860048036038101906100a39190610a97565b610120565b6040516100b59190610b1f565b60405180910390f35b6100d860048036038101906100d39190610a97565b6101ee565b005b3480156100e657600080fd5b5061010160048036038101906100fc9190610b70565b610445565b005b6000806101146000600186866106d4565b90508091505092915050565b61012861098a565b6000808373ffffffffffffffffffffffffffffffffffffffff1673ffffffffffffffffffffffffffffffffffffffff1681526020019081526020016000206040518060400160405290816000820160009054906101000a900461ffff1661ffff1661ffff1681526020016000820160029054906101000a900473ffffffffffffffffffffffffffffffffffffffff1673ffffffffffffffffffffffffffffffffffffffff1673ffffffffffffffffffffffffffffffffffffffff16815250509050919050565b60008060008373ffffffffffffffffffffffffffffffffffffffff1673ffffffffffffffffffffffffffffffffffffffff1681526020019081526020016000206040518060400160405290816000820160009054906101000a900461ffff1661ffff1661ffff1681526020016000820160029054906101000a900473ffffffffffffffffffffffffffffffffffffffff1673ffffffffffffffffffffffffffffffffffffffff1673ffffffffffffffffffffffffffffffffffffffff1681525050905060003414156102ec576040517ffae8279100000000000000000000000000000000000000000000000000000000815260040160405180910390fd5b8173ffffffffffffffffffffffffffffffffffffffff166323b872dd338360200151346040518463ffffffff1660e01b815260040161032d93929190610bce565b602060405180830381600087803b15801561034757600080fd5b505af115801561035b573d6000803e3d6000fd5b505050506040513d601f19601f8201168201806040525081019061037f9190610c31565b50806020015173ffffffffffffffffffffffffffffffffffffffff166340c10f1933346040518363ffffffff1660e01b81526004016103bf929190610c5e565b600060405180830381600087803b1580156103d957600080fd5b505af11580156103ed573d6000803e3d6000fd5b505050508173ffffffffffffffffffffffffffffffffffffffff167f5548c837ab068cf56a2c2479df0882a4922fd203edb7517321831d95078c5f623334604051610439929190610c5e565b60405180910390a25050565b60008060008473ffffffffffffffffffffffffffffffffffffffff1673ffffffffffffffffffffffffffffffffffffffff1681526020019081526020016000206040518060400160405290816000820160009054906101000a900461ffff1661ffff1661ffff1681526020016000820160029054906101000a900473ffffffffffffffffffffffffffffffffffffffff1673ffffffffffffffffffffffffffffffffffffffff1673ffffffffffffffffffffffffffffffffffffffff168152505090506000821415610543576040517ffae8279100000000000000000000000000000000000000000000000000000000815260040160405180910390fd5b6000816020015173ffffffffffffffffffffffffffffffffffffffff166370a08231336040518263ffffffff1660e01b81526004016105829190610c87565b60206040518083038186803b15801561059a57600080fd5b505afa1580156105ae573d6000803e3d6000fd5b505050506040513d601f19601f820116820180604052508101906105d29190610cb7565b905080831061060d576040517fb7e0b24e00000000000000000000000000000000000000000000000000000000815260040160405180910390fd5b816020015173ffffffffffffffffffffffffffffffffffffffff16639dc29fac33856040518363ffffffff1660e01b815260040161064c929190610c5e565b600060405180830381600087803b15801561066657600080fd5b505af115801561067a573d6000803e3d6000fd5b505050508373ffffffffffffffffffffffffffffffffffffffff167f9b1bfa7fa9ee420a16e124f794c35ac9f90472acc99140eb2f6447c714cad8eb33856040516106c6929190610c5e565b60405180910390a250505050565b60008073ffffffffffffffffffffffffffffffffffffffff168560008573ffffffffffffffffffffffffffffffffffffffff1673ffffffffffffffffffffffffffffffffffffffff16815260200190815260200160002060000160029054906101000a900473ffffffffffffffffffffffffffffffffffffffff1673ffffffffffffffffffffffffffffffffffffffff161461079c576040517fd9adda8500000000000000000000000000000000000000000000000000000000815260040160405180910390fd5b818560008573ffffffffffffffffffffffffffffffffffffffff1673ffffffffffffffffffffffffffffffffffffffff16815260200190815260200160002060000160026101000a81548173ffffffffffffffffffffffffffffffffffffffff021916908373ffffffffffffffffffffffffffffffffffffffff1602179055506000808660008673ffffffffffffffffffffffffffffffffffffffff1673ffffffffffffffffffffffffffffffffffffffff16815260200190815260200160002060000160009054906101000a900461ffff1661ffff161415905080156108af576040517f12dcade800000000000000000000000000000000000000000000000000000000815260040160405180910390fd5b84849080600181540180825580915050600190039060005260206000200160009091909190916101000a81548173ffffffffffffffffffffffffffffffffffffffff021916908373ffffffffffffffffffffffffffffffffffffffff160217905550600185805490506109229190610d13565b8660008673ffffffffffffffffffffffffffffffffffffffff1673ffffffffffffffffffffffffffffffffffffffff16815260200190815260200160002060000160006101000a81548161ffff021916908361ffff1602179055506001915050949350505050565b6040518060400160405280600061ffff168152602001600073ffffffffffffffffffffffffffffffffffffffff1681525090565b600080fd5b600073ffffffffffffffffffffffffffffffffffffffff82169050919050565b60006109ee826109c3565b9050919050565b6109fe816109e3565b8114610a0957600080fd5b50565b600081359050610a1b816109f5565b92915050565b60008060408385031215610a3857610a376109be565b5b6000610a4685828601610a0c565b9250506020610a5785828601610a0c565b9150509250929050565b60008115159050919050565b610a7681610a61565b82525050565b6000602082019050610a916000830184610a6d565b92915050565b600060208284031215610aad57610aac6109be565b5b6000610abb84828501610a0c565b91505092915050565b600061ffff82169050919050565b610adb81610ac4565b82525050565b610aea816109e3565b82525050565b604082016000820151610b066000850182610ad2565b506020820151610b196020850182610ae1565b50505050565b6000604082019050610b346000830184610af0565b92915050565b6000819050919050565b610b4d81610b3a565b8114610b5857600080fd5b50565b600081359050610b6a81610b44565b92915050565b60008060408385031215610b8757610b866109be565b5b6000610b9585828601610a0c565b9250506020610ba685828601610b5b565b9150509250929050565b610bb9816109e3565b82525050565b610bc881610b3a565b82525050565b6000606082019050610be36000830186610bb0565b610bf06020830185610bb0565b610bfd6040830184610bbf565b949350505050565b610c0e81610a61565b8114610c1957600080fd5b50565b600081519050610c2b81610c05565b92915050565b600060208284031215610c4757610c466109be565b5b6000610c5584828501610c1c565b91505092915050565b6000604082019050610c736000830185610bb0565b610c806020830184610bbf565b9392505050565b6000602082019050610c9c6000830184610bb0565b92915050565b600081519050610cb181610b44565b92915050565b600060208284031215610ccd57610ccc6109be565b5b6000610cdb84828501610ca2565b91505092915050565b7f4e487b7100000000000000000000000000000000000000000000000000000000600052601160045260246000fd5b6000610d1e82610b3a565b9150610d2983610b3a565b925082821015610d3c57610d3b610ce4565b5b82820390509291505056fea2646970667358221220c2eef729e15d8890f5dc215477db42e5d92175a77e159ab4d6e6d367de95ed6364736f6c63430008080033",
  "linkReferences": {},
  "deployedLinkReferences": {}
}