{
  "_format": "hh-sol-artifact-1",
  "contractName": "ThToken",
  "sourceName": "contracts/thToken.sol",
  "abi": [
    {
      "inputs": [],
      "name": "CALLER_IS_NOT_POOL_ADMIN",
      "type": "error"
    },
    {
      "anonymous": false,
      "inputs": [
        {
          "indexed": true,
          "internalType": "address",
          "name": "owner",
          "type": "address"
        },
        {
          "indexed": true,
          "internalType": "address",
          "name": "spender",
          "type": "address"
        },
        {
          "indexed": false,
          "internalType": "uint256",
          "name": "value",
          "type": "uint256"
        }
      ],
      "name": "Approval",
      "type": "event"
    },
    {
      "anonymous": false,
      "inputs": [
        {
          "indexed": true,
          "internalType": "address",
          "name": "underlyingAsset",
          "type": "address"
        },
        {
          "indexed": true,
          "internalType": "address",
          "name": "pool",
          "type": "address"
        }
      ],
      "name": "Initialized",
      "type": "event"
    },
    {
      "anonymous": false,
      "inputs": [
        {
          "indexed": false,
          "internalType": "uint8",
          "name": "version",
          "type": "uint8"
        }
      ],
      "name": "Initialized",
      "type": "event"
    },
    {
      "anonymous": false,
      "inputs": [
        {
          "indexed": true,
          "internalType": "address",
          "name": "from",
          "type": "address"
        },
        {
          "indexed": true,
          "internalType": "address",
          "name": "to",
          "type": "address"
        },
        {
          "indexed": false,
          "internalType": "uint256",
          "name": "value",
          "type": "uint256"
        }
      ],
      "name": "Transfer",
      "type": "event"
    },
    {
      "inputs": [],
      "name": "POOL",
      "outputs": [
        {
          "internalType": "contract IPool",
          "name": "",
          "type": "address"
        }
      ],
      "stateMutability": "view",
      "type": "function"
    },
    {
      "inputs": [
        {
          "internalType": "address",
          "name": "owner",
          "type": "address"
        },
        {
          "internalType": "address",
          "name": "spender",
          "type": "address"
        }
      ],
      "name": "allowance",
      "outputs": [
        {
          "internalType": "uint256",
          "name": "",
          "type": "uint256"
        }
      ],
      "stateMutability": "view",
      "type": "function"
    },
    {
      "inputs": [
        {
          "internalType": "address",
          "name": "spender",
          "type": "address"
        },
        {
          "internalType": "uint256",
          "name": "amount",
          "type": "uint256"
        }
      ],
      "name": "approve",
      "outputs": [
        {
          "internalType": "bool",
          "name": "",
          "type": "bool"
        }
      ],
      "stateMutability": "nonpayable",
      "type": "function"
    },
    {
      "inputs": [
        {
          "internalType": "address",
          "name": "account",
          "type": "address"
        }
      ],
      "name": "balanceOf",
      "outputs": [
        {
          "internalType": "uint256",
          "name": "",
          "type": "uint256"
        }
      ],
      "stateMutability": "view",
      "type": "function"
    },
    {
      "inputs": [
        {
          "internalType": "address",
          "name": "_account",
          "type": "address"
        },
        {
          "internalType": "uint256",
          "name": "_amount",
          "type": "uint256"
        }
      ],
      "name": "burn",
      "outputs": [],
      "stateMutability": "nonpayable",
      "type": "function"
    },
    {
      "inputs": [],
      "name": "decimals",
      "outputs": [
        {
          "internalType": "uint8",
          "name": "",
          "type": "uint8"
        }
      ],
      "stateMutability": "view",
      "type": "function"
    },
    {
      "inputs": [
        {
          "internalType": "address",
          "name": "spender",
          "type": "address"
        },
        {
          "internalType": "uint256",
          "name": "subtractedValue",
          "type": "uint256"
        }
      ],
      "name": "decreaseAllowance",
      "outputs": [
        {
          "internalType": "bool",
          "name": "",
          "type": "bool"
        }
      ],
      "stateMutability": "nonpayable",
      "type": "function"
    },
    {
      "inputs": [],
      "name": "getUnderlyingAsset",
      "outputs": [
        {
          "internalType": "address",
          "name": "",
          "type": "address"
        }
      ],
      "stateMutability": "view",
      "type": "function"
    },
    {
      "inputs": [
        {
          "internalType": "address",
          "name": "spender",
          "type": "address"
        },
        {
          "internalType": "uint256",
          "name": "addedValue",
          "type": "uint256"
        }
      ],
      "name": "increaseAllowance",
      "outputs": [
        {
          "internalType": "bool",
          "name": "",
          "type": "bool"
        }
      ],
      "stateMutability": "nonpayable",
      "type": "function"
    },
    {
      "inputs": [
        {
          "internalType": "contract IPool",
          "name": "pool",
          "type": "address"
        },
        {
          "internalType": "string",
          "name": "name",
          "type": "string"
        },
        {
          "internalType": "string",
          "name": "symbol",
          "type": "string"
        },
        {
          "internalType": "address",
          "name": "underlyingAsset",
          "type": "address"
        }
      ],
      "name": "initialize",
      "outputs": [],
      "stateMutability": "nonpayable",
      "type": "function"
    },
    {
      "inputs": [
        {
          "internalType": "address",
          "name": "_account",
          "type": "address"
        },
        {
          "internalType": "uint256",
          "name": "_amount",
          "type": "uint256"
        }
      ],
      "name": "mint",
      "outputs": [],
      "stateMutability": "nonpayable",
      "type": "function"
    },
    {
      "inputs": [],
      "name": "name",
      "outputs": [
        {
          "internalType": "string",
          "name": "",
          "type": "string"
        }
      ],
      "stateMutability": "view",
      "type": "function"
    },
    {
      "inputs": [],
      "name": "symbol",
      "outputs": [
        {
          "internalType": "string",
          "name": "",
          "type": "string"
        }
      ],
      "stateMutability": "view",
      "type": "function"
    },
    {
      "inputs": [],
      "name": "totalSupply",
      "outputs": [
        {
          "internalType": "uint256",
          "name": "",
          "type": "uint256"
        }
      ],
      "stateMutability": "view",
      "type": "function"
    },
    {
      "inputs": [
        {
          "internalType": "address",
          "name": "to",
          "type": "address"
        },
        {
          "internalType": "uint256",
          "name": "amount",
          "type": "uint256"
        }
      ],
      "name": "transfer",
      "outputs": [
        {
          "internalType": "bool",
          "name": "",
          "type": "bool"
        }
      ],
      "stateMutability": "nonpayable",
      "type": "function"
    },
    {
      "inputs": [
        {
          "internalType": "address",
          "name": "from",
          "type": "address"
        },
        {
          "internalType": "address",
          "name": "to",
          "type": "address"
        },
        {
          "internalType": "uint256",
          "name": "amount",
          "type": "uint256"
        }
      ],
      "name": "transferFrom",
      "outputs": [
        {
          "internalType": "bool",
          "name": "",
          "type": "bool"
        }
      ],
      "stateMutability": "nonpayable",
      "type": "function"
    }
  ],
  "bytecode": "0x608060405234801561001057600080fd5b50612315806100206000396000f3fe608060405234801561001057600080fd5b50600436106101005760003560e01c8063613d25bb116100975780639dc29fac116100665780639dc29fac146102b1578063a457c2d7146102cd578063a9059cbb146102fd578063dd62ed3e1461032d57610100565b8063613d25bb1461022957806370a08231146102455780637535d2461461027557806395d89b411461029357610100565b806323b872dd116100d357806323b872dd1461018f578063313ce567146101bf57806339509351146101dd57806340c10f191461020d57610100565b806306fdde0314610105578063095ea7b31461012357806318160ddd146101535780631b206b7314610171575b600080fd5b61010d61035d565b60405161011a919061157e565b60405180910390f35b61013d60048036038101906101389190611648565b6103ef565b60405161014a91906116a3565b60405180910390f35b61015b610412565b60405161016891906116cd565b60405180910390f35b61017961041c565b60405161018691906116f7565b60405180910390f35b6101a960048036038101906101a49190611712565b610446565b6040516101b691906116a3565b60405180910390f35b6101c7610475565b6040516101d49190611781565b60405180910390f35b6101f760048036038101906101f29190611648565b61047e565b60405161020491906116a3565b60405180910390f35b61022760048036038101906102229190611648565b6104b5565b005b610243600480360381019061023e919061190f565b610551565b005b61025f600480360381019061025a91906119ae565b610793565b60405161026c91906116cd565b60405180910390f35b61027d6107dc565b60405161028a9190611a3a565b60405180910390f35b61029b610802565b6040516102a8919061157e565b60405180910390f35b6102cb60048036038101906102c69190611648565b610894565b005b6102e760048036038101906102e29190611648565b610a14565b6040516102f491906116a3565b60405180910390f35b61031760048036038101906103129190611648565b610a8b565b60405161032491906116a3565b60405180910390f35b61034760048036038101906103429190611a55565b610aae565b60405161035491906116cd565b60405180910390f35b60606036805461036c90611ac4565b80601f016020809104026020016040519081016040528092919081815260200182805461039890611ac4565b80156103e55780601f106103ba576101008083540402835291602001916103e5565b820191906000526020600020905b8154815290600101906020018083116103c857829003601f168201915b5050505050905090565b6000806103fa610b35565b9050610407818585610b3d565b600191505092915050565b6000603554905090565b6000606560009054906101000a900473ffffffffffffffffffffffffffffffffffffffff16905090565b600080610451610b35565b905061045e858285610d08565b610469858585610d94565b60019150509392505050565b60006012905090565b600080610489610b35565b90506104aa81858561049b8589610aae565b6104a59190611b25565b610b3d565b600191505092915050565b606660009054906101000a900473ffffffffffffffffffffffffffffffffffffffff1673ffffffffffffffffffffffffffffffffffffffff166104f6610b35565b73ffffffffffffffffffffffffffffffffffffffff1614610543576040517fedb8a42500000000000000000000000000000000000000000000000000000000815260040160405180910390fd5b61054d828261100f565b5050565b60008060019054906101000a900460ff161590508080156105825750600160008054906101000a900460ff1660ff16105b806105af575061059130611167565b1580156105ae5750600160008054906101000a900460ff1660ff16145b5b6105ee576040517f08c379a00000000000000000000000000000000000000000000000000000000081526004016105e590611bed565b60405180910390fd5b60016000806101000a81548160ff021916908360ff160217905550801561062b576001600060016101000a81548160ff0219169083151502179055505b610635848461118a565b84606660006101000a81548173ffffffffffffffffffffffffffffffffffffffff021916908373ffffffffffffffffffffffffffffffffffffffff16021790555081606560006101000a81548173ffffffffffffffffffffffffffffffffffffffff021916908373ffffffffffffffffffffffffffffffffffffffff160217905550606660009054906101000a900473ffffffffffffffffffffffffffffffffffffffff1673ffffffffffffffffffffffffffffffffffffffff168273ffffffffffffffffffffffffffffffffffffffff167f3cd5ec01b1ae7cfec6ca1863e2cd6aa25d6d1702825803ff2b7cc95010fffdc260405160405180910390a3801561078c5760008060016101000a81548160ff0219169083151502179055507f7f26b83ff96e1f2b6a682f133852f6798a09c465da95921460cefb384740249860016040516107839190611c48565b60405180910390a15b5050505050565b6000603360008373ffffffffffffffffffffffffffffffffffffffff1673ffffffffffffffffffffffffffffffffffffffff168152602001908152602001600020549050919050565b606660009054906101000a900473ffffffffffffffffffffffffffffffffffffffff1681565b60606037805461081190611ac4565b80601f016020809104026020016040519081016040528092919081815260200182805461083d90611ac4565b801561088a5780601f1061085f5761010080835404028352916020019161088a565b820191906000526020600020905b81548152906001019060200180831161086d57829003601f168201915b5050505050905090565b606660009054906101000a900473ffffffffffffffffffffffffffffffffffffffff1673ffffffffffffffffffffffffffffffffffffffff166108d5610b35565b73ffffffffffffffffffffffffffffffffffffffff1614610922576040517fedb8a42500000000000000000000000000000000000000000000000000000000815260040160405180910390fd5b61092c82826111e7565b3073ffffffffffffffffffffffffffffffffffffffff168273ffffffffffffffffffffffffffffffffffffffff1614610a1057606560009054906101000a900473ffffffffffffffffffffffffffffffffffffffff1673ffffffffffffffffffffffffffffffffffffffff1663a9059cbb83836040518363ffffffff1660e01b81526004016109bc929190611c63565b602060405180830381600087803b1580156109d657600080fd5b505af11580156109ea573d6000803e3d6000fd5b505050506040513d601f19601f82011682018060405250810190610a0e9190611cb8565b505b5050565b600080610a1f610b35565b90506000610a2d8286610aae565b905083811015610a72576040517f08c379a0000000000000000000000000000000000000000000000000000000008152600401610a6990611d57565b60405180910390fd5b610a7f8286868403610b3d565b60019250505092915050565b600080610a96610b35565b9050610aa3818585610d94565b600191505092915050565b6000603460008473ffffffffffffffffffffffffffffffffffffffff1673ffffffffffffffffffffffffffffffffffffffff16815260200190815260200160002060008373ffffffffffffffffffffffffffffffffffffffff1673ffffffffffffffffffffffffffffffffffffffff16815260200190815260200160002054905092915050565b600033905090565b600073ffffffffffffffffffffffffffffffffffffffff168373ffffffffffffffffffffffffffffffffffffffff161415610bad576040517f08c379a0000000000000000000000000000000000000000000000000000000008152600401610ba490611de9565b60405180910390fd5b600073ffffffffffffffffffffffffffffffffffffffff168273ffffffffffffffffffffffffffffffffffffffff161415610c1d576040517f08c379a0000000000000000000000000000000000000000000000000000000008152600401610c1490611e7b565b60405180910390fd5b80603460008573ffffffffffffffffffffffffffffffffffffffff1673ffffffffffffffffffffffffffffffffffffffff16815260200190815260200160002060008473ffffffffffffffffffffffffffffffffffffffff1673ffffffffffffffffffffffffffffffffffffffff168152602001908152602001600020819055508173ffffffffffffffffffffffffffffffffffffffff168373ffffffffffffffffffffffffffffffffffffffff167f8c5be1e5ebec7d5bd14f71427d1e84f3dd0314c0f7b2291e5b200ac8c7c3b92583604051610cfb91906116cd565b60405180910390a3505050565b6000610d148484610aae565b90507fffffffffffffffffffffffffffffffffffffffffffffffffffffffffffffffff8114610d8e5781811015610d80576040517f08c379a0000000000000000000000000000000000000000000000000000000008152600401610d7790611ee7565b60405180910390fd5b610d8d8484848403610b3d565b5b50505050565b600073ffffffffffffffffffffffffffffffffffffffff168373ffffffffffffffffffffffffffffffffffffffff161415610e04576040517f08c379a0000000000000000000000000000000000000000000000000000000008152600401610dfb90611f79565b60405180910390fd5b600073ffffffffffffffffffffffffffffffffffffffff168273ffffffffffffffffffffffffffffffffffffffff161415610e74576040517f08c379a0000000000000000000000000000000000000000000000000000000008152600401610e6b9061200b565b60405180910390fd5b610e7f8383836113b7565b6000603360008573ffffffffffffffffffffffffffffffffffffffff1673ffffffffffffffffffffffffffffffffffffffff16815260200190815260200160002054905081811015610f06576040517f08c379a0000000000000000000000000000000000000000000000000000000008152600401610efd9061209d565b60405180910390fd5b818103603360008673ffffffffffffffffffffffffffffffffffffffff1673ffffffffffffffffffffffffffffffffffffffff1681526020019081526020016000208190555081603360008573ffffffffffffffffffffffffffffffffffffffff1673ffffffffffffffffffffffffffffffffffffffff168152602001908152602001600020600082825401925050819055508273ffffffffffffffffffffffffffffffffffffffff168473ffffffffffffffffffffffffffffffffffffffff167fddf252ad1be2c89b69c2b068fc378daa952ba7f163c4a11628f55a4df523b3ef84604051610ff691906116cd565b60405180910390a36110098484846113bc565b50505050565b600073ffffffffffffffffffffffffffffffffffffffff168273ffffffffffffffffffffffffffffffffffffffff16141561107f576040517f08c379a000000000000000000000000000000000000000000000000000000000815260040161107690612109565b60405180910390fd5b61108b600083836113b7565b806035600082825461109d9190611b25565b9250508190555080603360008473ffffffffffffffffffffffffffffffffffffffff1673ffffffffffffffffffffffffffffffffffffffff168152602001908152602001600020600082825401925050819055508173ffffffffffffffffffffffffffffffffffffffff16600073ffffffffffffffffffffffffffffffffffffffff167fddf252ad1be2c89b69c2b068fc378daa952ba7f163c4a11628f55a4df523b3ef8360405161114f91906116cd565b60405180910390a3611163600083836113bc565b5050565b6000808273ffffffffffffffffffffffffffffffffffffffff163b119050919050565b600060019054906101000a900460ff166111d9576040517f08c379a00000000000000000000000000000000000000000000000000000000081526004016111d09061219b565b60405180910390fd5b6111e382826113c1565b5050565b600073ffffffffffffffffffffffffffffffffffffffff168273ffffffffffffffffffffffffffffffffffffffff161415611257576040517f08c379a000000000000000000000000000000000000000000000000000000000815260040161124e9061222d565b60405180910390fd5b611263826000836113b7565b6000603360008473ffffffffffffffffffffffffffffffffffffffff1673ffffffffffffffffffffffffffffffffffffffff168152602001908152602001600020549050818110156112ea576040517f08c379a00000000000000000000000000000000000000000000000000000000081526004016112e1906122bf565b60405180910390fd5b818103603360008573ffffffffffffffffffffffffffffffffffffffff1673ffffffffffffffffffffffffffffffffffffffff1681526020019081526020016000208190555081603560008282540392505081905550600073ffffffffffffffffffffffffffffffffffffffff168373ffffffffffffffffffffffffffffffffffffffff167fddf252ad1be2c89b69c2b068fc378daa952ba7f163c4a11628f55a4df523b3ef8460405161139e91906116cd565b60405180910390a36113b2836000846113bc565b505050565b505050565b505050565b600060019054906101000a900460ff16611410576040517f08c379a00000000000000000000000000000000000000000000000000000000081526004016114079061219b565b60405180910390fd5b8160369080519060200190611426929190611442565b50806037908051906020019061143d929190611442565b505050565b82805461144e90611ac4565b90600052602060002090601f01602090048101928261147057600085556114b7565b82601f1061148957805160ff19168380011785556114b7565b828001600101855582156114b7579182015b828111156114b657825182559160200191906001019061149b565b5b5090506114c491906114c8565b5090565b5b808211156114e15760008160009055506001016114c9565b5090565b600081519050919050565b600082825260208201905092915050565b60005b8381101561151f578082015181840152602081019050611504565b8381111561152e576000848401525b50505050565b6000601f19601f8301169050919050565b6000611550826114e5565b61155a81856114f0565b935061156a818560208601611501565b61157381611534565b840191505092915050565b600060208201905081810360008301526115988184611545565b905092915050565b6000604051905090565b600080fd5b600080fd5b600073ffffffffffffffffffffffffffffffffffffffff82169050919050565b60006115df826115b4565b9050919050565b6115ef816115d4565b81146115fa57600080fd5b50565b60008135905061160c816115e6565b92915050565b6000819050919050565b61162581611612565b811461163057600080fd5b50565b6000813590506116428161161c565b92915050565b6000806040838503121561165f5761165e6115aa565b5b600061166d858286016115fd565b925050602061167e85828601611633565b9150509250929050565b60008115159050919050565b61169d81611688565b82525050565b60006020820190506116b86000830184611694565b92915050565b6116c781611612565b82525050565b60006020820190506116e260008301846116be565b92915050565b6116f1816115d4565b82525050565b600060208201905061170c60008301846116e8565b92915050565b60008060006060848603121561172b5761172a6115aa565b5b6000611739868287016115fd565b935050602061174a868287016115fd565b925050604061175b86828701611633565b9150509250925092565b600060ff82169050919050565b61177b81611765565b82525050565b60006020820190506117966000830184611772565b92915050565b60006117a7826115d4565b9050919050565b6117b78161179c565b81146117c257600080fd5b50565b6000813590506117d4816117ae565b92915050565b600080fd5b600080fd5b7f4e487b7100000000000000000000000000000000000000000000000000000000600052604160045260246000fd5b61181c82611534565b810181811067ffffffffffffffff8211171561183b5761183a6117e4565b5b80604052505050565b600061184e6115a0565b905061185a8282611813565b919050565b600067ffffffffffffffff82111561187a576118796117e4565b5b61188382611534565b9050602081019050919050565b82818337600083830152505050565b60006118b26118ad8461185f565b611844565b9050828152602081018484840111156118ce576118cd6117df565b5b6118d9848285611890565b509392505050565b600082601f8301126118f6576118f56117da565b5b813561190684826020860161189f565b91505092915050565b60008060008060808587031215611929576119286115aa565b5b6000611937878288016117c5565b945050602085013567ffffffffffffffff811115611958576119576115af565b5b611964878288016118e1565b935050604085013567ffffffffffffffff811115611985576119846115af565b5b611991878288016118e1565b92505060606119a2878288016115fd565b91505092959194509250565b6000602082840312156119c4576119c36115aa565b5b60006119d2848285016115fd565b91505092915050565b6000819050919050565b6000611a006119fb6119f6846115b4565b6119db565b6115b4565b9050919050565b6000611a12826119e5565b9050919050565b6000611a2482611a07565b9050919050565b611a3481611a19565b82525050565b6000602082019050611a4f6000830184611a2b565b92915050565b60008060408385031215611a6c57611a6b6115aa565b5b6000611a7a858286016115fd565b9250506020611a8b858286016115fd565b9150509250929050565b7f4e487b7100000000000000000000000000000000000000000000000000000000600052602260045260246000fd5b60006002820490506001821680611adc57607f821691505b60208210811415611af057611aef611a95565b5b50919050565b7f4e487b7100000000000000000000000000000000000000000000000000000000600052601160045260246000fd5b6000611b3082611612565b9150611b3b83611612565b9250827fffffffffffffffffffffffffffffffffffffffffffffffffffffffffffffffff03821115611b7057611b6f611af6565b5b828201905092915050565b7f496e697469616c697a61626c653a20636f6e747261637420697320616c72656160008201527f647920696e697469616c697a6564000000000000000000000000000000000000602082015250565b6000611bd7602e836114f0565b9150611be282611b7b565b604082019050919050565b60006020820190508181036000830152611c0681611bca565b9050919050565b6000819050919050565b6000611c32611c2d611c2884611c0d565b6119db565b611765565b9050919050565b611c4281611c17565b82525050565b6000602082019050611c5d6000830184611c39565b92915050565b6000604082019050611c7860008301856116e8565b611c8560208301846116be565b9392505050565b611c9581611688565b8114611ca057600080fd5b50565b600081519050611cb281611c8c565b92915050565b600060208284031215611cce57611ccd6115aa565b5b6000611cdc84828501611ca3565b91505092915050565b7f45524332303a2064656372656173656420616c6c6f77616e63652062656c6f7760008201527f207a65726f000000000000000000000000000000000000000000000000000000602082015250565b6000611d416025836114f0565b9150611d4c82611ce5565b604082019050919050565b60006020820190508181036000830152611d7081611d34565b9050919050565b7f45524332303a20617070726f76652066726f6d20746865207a65726f2061646460008201527f7265737300000000000000000000000000000000000000000000000000000000602082015250565b6000611dd36024836114f0565b9150611dde82611d77565b604082019050919050565b60006020820190508181036000830152611e0281611dc6565b9050919050565b7f45524332303a20617070726f766520746f20746865207a65726f20616464726560008201527f7373000000000000000000000000000000000000000000000000000000000000602082015250565b6000611e656022836114f0565b9150611e7082611e09565b604082019050919050565b60006020820190508181036000830152611e9481611e58565b9050919050565b7f45524332303a20696e73756666696369656e7420616c6c6f77616e6365000000600082015250565b6000611ed1601d836114f0565b9150611edc82611e9b565b602082019050919050565b60006020820190508181036000830152611f0081611ec4565b9050919050565b7f45524332303a207472616e736665722066726f6d20746865207a65726f20616460008201527f6472657373000000000000000000000000000000000000000000000000000000602082015250565b6000611f636025836114f0565b9150611f6e82611f07565b604082019050919050565b60006020820190508181036000830152611f9281611f56565b9050919050565b7f45524332303a207472616e7366657220746f20746865207a65726f206164647260008201527f6573730000000000000000000000000000000000000000000000000000000000602082015250565b6000611ff56023836114f0565b915061200082611f99565b604082019050919050565b6000602082019050818103600083015261202481611fe8565b9050919050565b7f45524332303a207472616e7366657220616d6f756e742065786365656473206260008201527f616c616e63650000000000000000000000000000000000000000000000000000602082015250565b60006120876026836114f0565b91506120928261202b565b604082019050919050565b600060208201905081810360008301526120b68161207a565b9050919050565b7f45524332303a206d696e7420746f20746865207a65726f206164647265737300600082015250565b60006120f3601f836114f0565b91506120fe826120bd565b602082019050919050565b60006020820190508181036000830152612122816120e6565b9050919050565b7f496e697469616c697a61626c653a20636f6e7472616374206973206e6f74206960008201527f6e697469616c697a696e67000000000000000000000000000000000000000000602082015250565b6000612185602b836114f0565b915061219082612129565b604082019050919050565b600060208201905081810360008301526121b481612178565b9050919050565b7f45524332303a206275726e2066726f6d20746865207a65726f2061646472657360008201527f7300000000000000000000000000000000000000000000000000000000000000602082015250565b60006122176021836114f0565b9150612222826121bb565b604082019050919050565b600060208201905081810360008301526122468161220a565b9050919050565b7f45524332303a206275726e20616d6f756e7420657863656564732062616c616e60008201527f6365000000000000000000000000000000000000000000000000000000000000602082015250565b60006122a96022836114f0565b91506122b48261224d565b604082019050919050565b600060208201905081810360008301526122d88161229c565b905091905056fea26469706673582212202734aa0c10cb6300dad12a459cf312e5ee936afdf86edabc2c1429b096ea471e64736f6c63430008080033",
  "linkReferences": {},
  "deployedLinkReferences": {}
}